:100000000C94BC010C94DF200C94F4010C94F401CA
:100010000C94F4010C94F4010C94F4010C94F4018C
:100020000C94F4010C94F4010C943C290C94102AC7
:100030000C949C230C94F4010C94F4010C94F401A2
:100040000C94F4010C94F4010C94F4010C94F4015C
:100050000C94F4010C943F240C94F4010C94F401DE
:100060000C94F4010C94F4010C94F4010C94F4013C
:100070000C94F4010C94F4010C94F4010C94F4012C
:100080000C94F4010C94F4010C94F4010C94F4011C
:100090000C94F4010C94F4010C94F4010C94F4010C
:1000A0000C94F4010C94F4010C94F4012900140054
:1000B0001A000800150017002B00040016000700A6
:1000C00009000A00E1001D001B00060019000500E0
:1000D000E00024000000000000002C0000000000F0
:1000E0000000000025002C002A00130012000C0064
:1000F00018001C00280031000F000E000D000B003E
:100100004C005200380010001100050022002200AF
:10011000210020001F001E003F003E003D003C006B
:100120003B003A0000000000000000002A2B2800DD
:100130000000000000000000000000000000002996
:10014000000000002C1E3420212224342627252ED6
:10015000362D3738271E1F2021222324252633330E
:10016000362E37381F0405060708090A0B0C0D0E3A
:100170000F101112131415161718191A1B1C1D2F06
:100180003130232D350405060708090A0B0C0D0E26
:100190000F101112131415161718191A1B1C1D2FE6
:1001A0003130354C0000000000000000000000006D
:1001B000000000000000000000000000000000003F
:1001C00000000000000000007E0F00D4FFFFFFC70A
:1001D00000000078100344004F0034003200142067
:1001E00059004B000000060359004B0000000403B7
:1001F000090409025B00030100A0FA0904000001E0
:1002000003010100092111010001224000070581BD
:100210000308000109040100020300000009211184
:1002200001000122220007058203200001070503C7
:10023000032000010904020001030000000921114C
:1002400001000122B600070584032000011201000D
:100250000200000008A6FE490A0100010200010692
:1002600060FF0961A1010962150026FF0095207554
:100270000881020963150026FF0095207508910288
:10028000C005010902A10185020901A100050919A2
:10029000012908150025019508750181020501094C
:1002A0003009311581257F950275088106093815B9
:1002B00081257F950175088106050C0A3802158194
:1002C000257F950175088106C0C005010980A1013F
:1002D000850319012AB700150126B700950175108D
:1002E0008100C0050C0901A101850419012AA002A1
:1002F000150126A002950175108100C005010906AF
:10030000A1018506050719E029E7150025019508D3
:10031000750181020507190029EF1500250195F0E7
:1003200075018102050819012905950575019102DC
:10033000950175039101C005010906A10105071981
:10034000E029E715002501950875018102950175E1
:100350000881010507190029FF150026FF009506F1
:100360007508810005081901290595057501910297
:10037000950175039101C00011241FBECFEFDAE093
:10038000DEBFCDBF04B603FE18C080911A03909162
:100390001B03A0911C03B0911D038730904BA74015
:1003A000B04B59F410921A0310921B0310921C03C5
:1003B00010921D03E0E0F8E3099511E0A0E0B1E040
:1003C000E2E3FAE502C005900D92A63CB107D9F729
:1003D00023E0A6ECB1E001C01D92AA31B207E1F71B
:1003E0000E9430140C94862C0C94000081E0089537
:1003F000811112C06A3080F4463070F4E42FF0E0CE
:1004000086E0689FE00DF11D1124EE0FFF1FE455FB
:10041000FF4F85919491089581E090E0089581E0E7
:10042000089581E008950E941102089508950E94A0
:1004300016020895A5E0B0E0E0E2F2E00C94F22BA1
:1004400049835A833091CD0189819A81311119C034
:10045000662399F0222389F00E94C907182F682F7C
:1004600089819A810E94A50769817A81812F0E94E2
:10047000C70E2596E3E00C940E2C0E94B707182FA8
:10048000F3CF0E94C90769817A81F1CFFC01262F41
:10049000408151816281738184810E941A02089592
:1004A00081E00895CF93DF93EC0160E00E94460263
:1004B000BE010E941702DF91CF91089508950E9416
:1004C0009B060E945E022FEF84E39CE02150804057
:1004D0009040E1F700C0000008950E945F020E9472
:1004E000632408950E945F020E94872408950F9359
:1004F0001F93CF93DF938C0161E00E944602EC01D1
:10050000B8010E942717811106C080E0DF91CF91CA
:100510001F910F910895B801CE010E941302882304
:10052000A1F3B801CE010E94B41F882371F3B80172
:10053000CE010E942618882341F3B801CE010E9403
:10054000261F882311F3B801CE010E94F81F8823CB
:10055000E1F2F8018281882361F0C330FCE7DF0714
:10056000E9F058F4C115ECE7DE07A9F0C130DC472B
:10057000B9F0C8010E940F02C9CFCB358CE7D8076C
:10058000A9F0CC35ECE7DE0771F0CA35DC4789F716
:100590000E941C0CEECF0E946D02B7CF0E94240C6B
:1005A0000E947202B2CF0E94120CE3CF0E94200C74
:1005B000E0CF0E9479230E94000308950E94040363
:1005C0000E947E230895089581E008950895CF93B1
:1005D000DF93D82F0E94E402C82F882319F08D2FB3
:1005E0000E94E6028C2FDF91CF9108950895CF935A
:1005F000C82F0E94E3028C2F0E94E702CF9108953A
:1006000080E00E94F70208950E9405220E94F702EE
:100610000895CF930E940522C82F8091C8018C179E
:1006200079F0C093C8010E9408246093C9017093B7
:10063000CA018093CB019093CC018C2F0E94F702CA
:10064000CF910895ABE0B0E0E8E2F3E00C94F32B37
:100650004F83588769877A878B8761110E945D0B6A
:100660001E821D8285E0FE013796DE011196019003
:100670000D928A95E1F78C819D81892B61F44981E6
:100680005A816B817C818D819E810E94850A2B9687
:10069000E2E00C940F2C89819A8189238F3F79F3B2
:1006A000CE0101960E9450028111E9CFF0CFFC01EA
:1006B000808191810E94F60708950F931F93CF9335
:1006C000DF93C82FD62F662341F10E94B4140C2F5C
:1006D00010E0C801815D9109089710F00E9487150C
:1006E000C15DC330A8F4015D110981E090E002C052
:1006F000880F991F0A95E2F72091EB023091EC02E6
:10070000DD2371F0822B932B9093EC028093EB020C
:10071000DF91CF911F910F9108950E940E15D7CFB1
:100720008095909582239323EFCFCF93C82F882372
:10073000E1F08CEF8C0F813AD0F48C2F0E94BF1C1B
:10074000811113C06C2F80910001909101010E94D2
:100750009F22882329F08C2F0E941D0B0E947E0B64
:100760008C2F0E94150B0E947E0BCF91089580E282
:100770008C0F883048F4C77081E001C0880FCA959B
:10078000EAF70E94400BEFCFEBE5EC0FE33040F4CB
:10079000F0E0E359FE4F808190E00E944122E5CFD6
:1007A000E8E5EC0FEB3150F4F0E0EE0FFF1FE95CF1
:1007B000FE4F808191810E946622D7CF83E38C0F08
:1007C000833198F661E08C2F0E945D03CECF8823A1
:1007D00081F19CEF980F913A28F40E941D0B0E9422
:1007E0007E0B089590E2980F983050F4877091E056
:1007F00001C0990F8A95EAF7892F0E94460BEFCF27
:100800009BE5980F933028F490E080E00E9441220D
:10081000089598E5980F9B3128F490E080E00E94BD
:100820006622089593E3980F933118F460E00E94D4
:100830005D0308951F93CF93DF93182FEB010E9460
:100840009503209739F4812F0E94E703DF91CF9120
:100850001F9108958FE99FE00197F1F700C0000014
:100860002197EFCF70E060E0893311F460E570E02C
:100870000E941A040895882321F00E94400B0E94D0
:100880007E0B0895882321F00E94460B0E947E0B68
:100890000895B0E0A0E0EFE4F4E00C94EC2B6C01E0
:1008A000D62FC72FFC011281058102950F700E947F
:1008B000360BE82E8823E9F0E12E1123D1F08C2F9E
:1008C000807F803451F080E28D0F8830F8F0011184
:1008D00004C08C2F807E8032C9F08091F20282FFAA
:1008E00015C082E00E94E10B0E94360B91E0E82ED9
:1008F000E926BC2EB2949FE0B922FBE0FB15B8F1CB
:10090000EB2DF0E0E857F34D0C94D62BE12CF1CF12
:100910000C2F0F70C07F11F00295007F112399F00A
:10092000002359F080E28D0F883010F0D11107C0FC
:10093000802F0E94400B0E947E0B8D2F63C0802F62
:100940000E94500BF8CF8D2F0E94E703002379F00F
:1009500080E28D0F883010F0D11104C0802F0E94EA
:10096000460B03C0802F0E94560B0E947E0B2B2D3E
:100970002850330B2430310520F40E9405220E94B8
:10098000F702EE2089F00E94320B80FD0DC0F601C7
:1009900012820E942C0B0E941907C6010E945B065E
:1009A0000E942C0B0E942507CDB7DEB7E9E00C941E
:1009B000082C2C2F2F70F22EC07FC03219F0F29429
:1009C00080EFF822DD2381F0D13009F449C01123F2
:1009D00009F451C0002309F448C0F601858180FF65
:1009E000ACCF8F70858341C08091F20282FD15C02B
:1009F000112359F0FF2029F08F2D0E94400B0E94F7
:100A00007E0B80E00E949503B2CF80E00E94E70356
:100A1000FF2009F4ACCF8F2DA2CF112381F001115B
:100A200006C00E94600B8F290E943B04A0CF0130BA
:100A3000C1F70E94600B8F290E94670B98CF0111AC
:100A400006C00E94740B8F2D0E94420490CF01308B
:100A500009F48DCF8F2D0E9442040E94740B87CF22
:100A6000112329F0063008F082CF8F2DDDCF05301D
:100A700008F07DCFE8CF002331F3D93349F4FFEFFD
:100A800027EE33E0F15020403040E1F700C0000095
:100A90008D2F0E94E7036BCF8C2F869586958370F0
:100AA00069F0813009F063CF8D2F9C2F9370111165
:100AB00002C080E090E00E94662259CF8D2F9C2FCB
:100AC0009370111102C080E090E00E9441224FCF4C
:100AD000612F8D2F0E945D034ACF8C2F837079F593
:100AE000111145CF4D2F429546954770440F440F45
:100AF0008D2F8F70042E01C0880F0A94EAF72D2FD6
:100B00002071D4FF07C02FE030E001C0220F4A95CA
:100B1000EAF72095C695C695C370822BC23049F07E
:100B200058F4C13019F00E94F50621CF0E94EF065B
:100B30001ECF0E94FB061BCF0E94EC0618CF8695A5
:100B4000112311F08C2F8170882309F410CF4D2FC1
:100B5000429546954770440F440F8D2F8F70042E99
:100B600001C0880F0A94EAF72D2F2071D4FF07C027
:100B70002FE030E001C0220F4A95EAF72095C69594
:100B8000C695C370822BC23049F058F4C13019F0B9
:100B90000E944407ECCE0E943E07E9CE0E944A071D
:100BA000E6CE0E940707E3CECF70112329F08C2FE9
:100BB0000E9419078D2F38CF8D2F0E9442048C2F51
:100BC0000E942507D4CED23F41F160F4D03FB9F066
:100BD000D13F81F0112309F446C00111AECE8C2F14
:100BE0008F711FC0D33F01F1D43FA1F78091F20272
:100BF00082FD24C08C2F8F71112311F312C0112399
:100C000041F0053008F0B3CE8C2F8F710E9432076F
:100C1000AECE063008F0ABCEF7CF8C2F8F7111110E
:100C2000CFCF0E941907A3CE112329F08C2F8F71EB
:100C30000E9410079CCE0E940C0799CE112349F008
:100C4000CF718C2F0E94190763E08C2F0E94C30B79
:100C50008ECE81E00E94E10B023008F488CE82E063
:100C60000E94E10B84CE002359F0D93309F010CF54
:100C70008FEF97EEE3E081509040E040E1F706CF40
:100C80008C2F8F719DCF0F931F93CF93DF93EC0128
:100C9000688179818A810E9401088C010E94500735
:100CA0000E94EB06B801CE010E944904DF91CF916A
:100CB0001F910F910895CF93DF93EC018B819C815D
:100CC000892B29F08881998189238F3F51F4DF9105
:100CD000CF910895CE010E944306CE010E94520298
:100CE000F6CFCE010E9477028111F4CF0E94360B1D
:100CF000882369F38A81882351F38091F20282FF6D
:100D0000E6CF82E00E94E10BE2CF90E080E00E941B
:100D1000412290E080E00E9466220E945D0B0E94CA
:100D20007E0B0E94A3150E94871508950E94250B33
:100D30000E94850608950E944D0B0E949606089514
:100D400092959F70963091F058F4925F9F70923018
:100D500058F4803F19F030F4883E30F481E0089573
:100D60009A5FF4CF843FD1F380E00895883EB0F3DA
:100D7000813FD1F7F3CFFC0183819481892B29F046
:100D80008081918189238F3F11F480E008958081D3
:100D900091810E94F6070E94A0060895A5E0B0E0A8
:100DA000E4EDF6E00C94F32B2596E2E00C940F2C86
:100DB000A6E0B0E0EEEDF6E00C94F32B2696E2E030
:100DC0000C940F2C08950E94E20608950E94E306F9
:100DD0008093E701089508950E94E6060895909192
:100DE000E701892B0E94E60608959091E701892387
:100DF0000E94E60608959091E70189270E94E60681
:100E000008950E94E20608950E94010708950E9435
:100E100004078093E601089580E00E940707089583
:100E200091E001C0990F8A95EAF7892F0E94070780
:100E3000089521E030E001C0220F8A95EAF7809101
:100E4000E601822B0E940707089521E030E001C0EF
:100E5000220F8A95EAF720958091E60182230E946D
:100E60000707089521E030E001C0220F8A95EAF7D4
:100E70008091E60182270E94070708959091E6017C
:100E8000892B0E94070708959091E60189230E940B
:100E9000070708959091E60189270E9407070895A2
:100EA0000895262F277091E001C0990F2A95EAF73F
:100EB00023E0769567952A95E1F7FB01EE0FFF1F7A
:100EC000E60FF71FE40FF51F50E040E0682F70E0D9
:100ED0008191DF0111979B01042E02C03695279561
:100EE0000A94E2F7217021952827292328272C939B
:100EF0004F5F5F4F4330510559F70895A82FA770F2
:100F000023E0969587952A95E1F7FC01EE0FFF1FE8
:100F1000E80FF91FE60FF71F50E040E080E0219155
:100F200030E00A2E02C0369527950A94E2F7217028
:100F30003327042E01C0220F0A94EAF7822B4F5F59
:100F40005F4F4330510559F70895262F9A3070F4BA
:100F5000863060F4682F70E086E0989F600D711D08
:100F600011244EEC51E0822F0E9451070895292F41
:100F70009A3068F4863058F490E06EEC71E036E018
:100F8000239F800D911D11240E947E07089580E00B
:100F90000895CF92DF92FF920F931F93CF93DF9329
:100FA0006C010091E6018091E701082BC3E0D0E0DD
:100FB00010E0FC2EC8010C2E02C0959587950A946E
:100FC000E2F780FD0CC02197A0F7F12C8F2DDF9167
:100FD000CF911F910F91FF90DF90CF900895B601B0
:100FE0008C2F0E94D30E019771F3F0CFCF93DF9334
:100FF000EC010E94C907BE010E94D30EDF91CF9180
:1010000008951F93CF93DF93EB019091CD01992326
:1010100039F0CB010E94F607DF91CF911F9108951F
:10102000882369F0CB010E94C907182F682FCE01D1
:101030000E94A507BE01812F0E94D30EEDCFCB01E8
:101040000E94B707182FF6CFE1E0F0E0DF0102C001
:10105000AA0FBB1F6A95E2F7BD01DF0102C0AA0F0C
:10106000BB1F4A95E2F76A2B01C0EE0F2A95EAF7FB
:10107000962F9823961302C08E2B0895E0958E2309
:101080000895242F462F682F8091E6010E9424089E
:101090000E94070708951F93CF93DF93C091E80143
:1010A00016E08091E9018C1304C0DF91CF911F916C
:1010B0000895D0E01C9FF0011D9FF00D1124E65112
:1010C000FE4F4081518162817381848195810E94AC
:1010D000D8062196C770E5CF40911A0250911B02A5
:1010E00060911C0270911D0280911E0290911F025E
:1010F0000E94D80608952091E8019091E90156E0F8
:10110000291302C080E0089530E0529FF001539F00
:10111000F00D1124E651FE4F7181761306C07081E7
:10112000781303C07281741304C02F5F3F4F277080
:10113000E7CF81E008951F93CF93DF9380911F0243
:10114000807F09F04BC080911C02882309F446C0BF
:101150008091E801C091E90140911A0250911B026F
:1011600060911D0270911E02D42FD52316E0C8177E
:10117000A9F190E061157105A9F1DF3F99F1189F80
:10118000F001199FF00D1124DF01A651BE4F1196F9
:101190002C911197251326C02C91241323C012964D
:1011A0002C91129721111EC013962D913C91261B54
:1011B000370B283C3105B0F480911F028F7080619D
:1011C00080931F02E151FE4F80818F708061808388
:1011D0008AE192E00E945B060E944B08DF91CF916A
:1011E0001F91089501968770C2CFA1E1B0E0EBEFA7
:1011F000F8E00C94E92B8C0185E0F801DE011D96E6
:1012000001900D928A95E1F7F801F2808AE1A82E0B
:1012100082E0B82E40911D0250911E0241155105E9
:1012200009F45AC190911A0220911B02892F82233E
:101230008F3F09F451C1C080D18083809480E090B9
:101240001C02B401641B750BEE2009F4F6C08091FA
:101250001F02382F307F683C710508F0AFC0311194
:101260007AC0EF2C2D1116C09C1114C0F11012C0C1
:101270008F70806180931F020E946C08C5010E94DC
:101280005B0680911F02F80185838E2D6196ECE04C
:101290000C94052C81149104C9F18C2D8D218F3F64
:1012A000A9F181E08F2580FF05C04F2D6D2D8C2D7C
:1012B0000E947B088114910459F18C2D8D218F3F60
:1012C00039F181E08F25F82FF170BF2E80FF39C0F2
:1012D0004F2D6D2D8C2D0E947B08A82E811131C0C1
:1012E000CD86DE868D859E850E94F607292F229564
:1012F0002F70243078F49F702230A8F09923B9F031
:10130000F8019581907F99F4EA2CBFCF80E0CBCF94
:1013100080E0D9CF2A5F2F70223068F0C8010E9488
:101320005B06AB2CF1CF992311F0882369F3805E23
:10133000883050F3F3CF803F38F3815F833070F70C
:10134000E3CFFF2009F4A1CF80911F028160809339
:101350001F02E12C9ACF2D1105C09C1103C0FF2064
:1013600009F486C0C8010E94BB06882319F1FF203A
:1013700009F180911F02803270F020911A023091A1
:101380001B0238872F8319869B868A868C87CE011D
:1013900007960E945B0686E0F801AAE1B2E00190A0
:1013A0000D928A95E1F70E949B080E946C08EE243A
:1013B000E3946BCFC8010E945B06F9CF311114C0D2
:1013C000782D998A888AA6016F2D89890E94CE0678
:1013D0008AE192E00E945B0686E0F50111928A950F
:1013E000E9F70E946C08B5CF2D110EC09C110CC0FE
:1013F000F1100AC08583C8010E945B0686E0F501F2
:1014000011928A95E9F741CFC8010E94BB06882353
:1014100089F2FF2079F280911F02803208F4BBCF5D
:1014200020911A0230911B023A8329831B829D82EC
:101430008C828E83CE010196ACCF683C710508F09A
:101440003DC0EF2CFF2009F4B5CF2D1129C09C1110
:1014500027C080911F0280FD1AC0982F907FB9F09D
:101460008583903F31F0982F907F905F8F70892B0C
:101470008583C8010E945B0686E0F801AAE1B2E01C
:1014800001900D928A95E1F70E946C08FECE86E0ED
:10149000F801AAE1B2E001900D928A95E1F7F5CE4C
:1014A000C8010E94BB06811176CF80911F02816026
:1014B00080931F02C8010E945B06E7CE782D998AAF
:1014C000888AA6016F2D89890E94CE0686E0F501E3
:1014D00011928A95E9F7D8CFFF2009F46BCFC801A4
:1014E0000E94BB06E82E882309F464CF86E0F80149
:1014F000AAE1B2E001900D928A95E1F78AE192E0CB
:101500000E9457030E949B08BFCFACE0B0E0EBE81D
:10151000FAE00C94F22B4F83588769877A878B8780
:101520009C87CE0107960E94F5088823B1F08A8532
:101530009B85892B39F04F815885842F85238F3FD8
:1015400009F06CC016E08091E8019091E9018913DF
:1015500043C02C96E3E00C940E2C86E0FE013796F7
:10156000DE01119601900D928A95E1F78A859B859F
:10157000892B41F38F81988589238F3F19F320911F
:10158000E90130E0C9010196877099274091E8018F
:101590004817190671F40E949B061092E9011092F7
:1015A000E80186E0EAE1F2E0DF011D928A95E9F7C1
:1015B000C9CF96E0929FD001939FB00D1124A65100
:1015C000BE4FFE01319601900D929A95E1F78093FE
:1015D000E9010E944B08B6CF819FC00111248651BA
:1015E0009E4F0E94F508882309F4B3CFE091E801EB
:1015F0001E9FF0011124E651FE4F4081518162810E
:101600007381848195810E94D8068091E80190E0E1
:101610000196877099278093E80195CF69857A852F
:101620008B859C850E94D8068DCF682F8091000104
:10163000909101010E941F230895682F809100015D
:10164000909101010E942D230895809100019091B5
:1016500001010E943B230895809140028595859564
:101660008595089580914002877008959091400279
:10167000977081E009F480E00895809163020895F5
:1016800090916302892B80936302089580959091D5
:101690006302982390936302089510926302089561
:1016A00090916202892B80936202089580959091B7
:1016B0006202982390936202089510926202089544
:1016C00080914102089508950E94630B08959091BE
:1016D000F20292FF08C090914102981721F0809386
:1016E00041020E94640B089580914102882329F0F1
:1016F0001092410280E00E94640B0895CF93DF9323
:10170000E0910001F0910101809163028083E091FA
:101710000001F0910101808190916202892B808308
:1017200090914102992381F0E0910001F091010133
:101730008081892B808380910001909101010E941A
:101740008B2281110E94740BC0910001D091010184
:1017500040E250E060E272E0CE010E942E2C892B24
:1017600059F080E2FE01A0E2B2E001900D928A956C
:10177000E1F7CE010E941922DF91CF9108950895DB
:101780000E94BF0B08959091F20292FF11C098E061
:10179000899F90011124622B609340020E941907D7
:1017A000809140028595859585950E94C00B08958E
:1017B0000E94190708951092400280E00E94C00B19
:1017C0000895909140028095892380934002282FAC
:1017D000277091F4282F082E000C330B9217130654
:1017E00059F09091F20292FF07C0859585958595F5
:1017F0000E9425070E94DB0B08959091F20292FB54
:10180000222720F9281769F080FB92F99093F202C1
:101810008091F1029091F2020E94460C82E00E94B7
:10182000E10B08958091F20282FB882780F991E014
:1018300089270E94FD0B089581E00E94FD0B089509
:1018400080E00E94FD0B08956FEF7FEF90E080E055
:101850000E94702C089590E080E00E944C2C873EFE
:101860009E4F19F40E94C116089580E0089582E009
:1018700090E00E94442C089583E090E00E94442C64
:10188000089584E090E00E944C2C0895BC0184E00F
:1018900090E00E94702C0895AB01BC018FE090E0B5
:1018A0000E94642C0895AB01BC0183E190E00E948A
:1018B000642C089560E070E0CB010E94530C089501
:1018C00060E070E0CB010E944C0C0E945A0C08951D
:1018D00067EE7EEF90E080E00E94702C60E082E096
:1018E00090E00E94522C60E083E090E00E94522C35
:1018F0001092E70160E074E184E090E00E94702CB7
:1019000060E086E090E00E94522C6FEF87E090E06C
:101910000E94522C40E050E0BA0188E090E00E9422
:10192000642C60E08DE090E00E94522C40E050E09A
:10193000BA0188E190E00E94642C60E087E190E0C9
:101940000E94522C40E050E0BA018CE190E00E94ED
:10195000642C70E060E080E290E00E94702C40E037
:1019600050E0BA0188E190E00E94642C80E00E947F
:10197000DA160E9409170E94600C08950E94680CF4
:101980000895682F8EE090E00E94522C0895A5E003
:10199000B0E0EDECFCE00C94F12B0E94FC238C01F8
:1019A000809164029091650280179107A1F08FEFFA
:1019B00089838A831B820E94FC238160782F9D8308
:1019C0008C8349815A816B818D810E9422031093FF
:1019D0006502009364022596E4E00C940D2C0E94AD
:1019E000082460937402709375028093760290933A
:1019F00077026093700270937102809372029093E9
:101A000073020895089508950E94030D089508959E
:101A10000E94070D089581E008958DEF9FE00E94D8
:101A2000FB210E94020D0E94040D08950E94D51111
:101A30000895089508950E94190D0E941A0D0895A1
:101A40000E941C100E94F60208950E94F3230E9437
:101A5000BD0F0E9419170E9418120E943F110E9488
:101A6000200D0E940E180E949F1A0E9422120E94AE
:101A7000080D0895A5E0B0E0E0E4FDE00C94EB2B48
:101A80000E940B0D811110C00E94C70C0E94D5113D
:101A90000E94FB110E94C5150E94C7190E940903EC
:101AA0002596EAE00C94072C0E94621186E6A82E87
:101AB00082E0B82E750110E0F70101917F01812FBE
:101AC0000E943F101F5F1A3009F440C00817A1F3AD
:101AD0008091780281FD0E9445100E94160DC82E4B
:101AE00010E0812F0E943F10082FF50181915F01C6
:101AF000081731F1D02ED826F12CEE24E3948D2D49
:101B00008E21B1F0CC20A1F0F9821A8391E0802FD0
:101B10008E2109F490E09B830E94FC238160782F42
:101B20009D838C8349815A816B818D810E94220320
:101B3000F394EE0CF6E0FF12E2CFF501319700834B
:101B40001F5F1A3071F60E94EF0CA0CF0813C0CFB0
:101B50009BCF1F93CF93DF930E94D80EEC01C1154A
:101B600080E5D807F0F5C11580E4D80708F09CC0DF
:101B7000C03ED10520F5CD3CD10508F082C0C83A61
:101B8000D10578F4C53AD10508F073C0C130D1054C
:101B900019F1209709F1C430D105F0F4D0E0C0E08C
:101BA0001BC0C33CD105D0F7C85AD0E0CC0FDD1F15
:101BB000C059DE4F0990D881C02DD4640DC0C11525
:101BC00080E2D80708F0D1C0C11581E0D80708F03D
:101BD0005AC0C83ED10510F7CE01DF91CF911F91B9
:101BE0000895C03682E5D80718F5C03482E5D807D5
:101BF00008F06BC0C03282E5D80708F05FC0C1159D
:101C000082E5D80708F497C02C2F2695269580E208
:101C1000289F900111248C2F8370C1E0D0E002C076
:101C2000CC0FDD1F8A95E2F7C22BD32BDD68D4CF12
:101C3000C03A82E5D80760F4C03882E5D80708F4D6
:101C400059C0CF71D0E0DC2FCC27C46FD06AC4CF8D
:101C5000C03C82E5D80708F462C0C03E82E5D807E0
:101C600008F09CCFDC2FCC27CC27DF71C06FD06A67
:101C7000B3CFC55AD0E0CA55DE4FC881D0E0D0649A
:101C8000ABCFD065A9CF8D2F0E947A0F182FCE0130
:101C900099270E94D80EC12FD0E0DC2FCC27CC276B
:101CA000DF71C82BD92B98CFCE0199270E94D80E6F
:101CB000CC27DF70C82BD92BD06A8ECFCF71D0E064
:101CC000DC2FCC27C16FD06A87CF2C2F2695269585
:101CD000277080E2289F900111248C2F8370C1E02F
:101CE000D0E002C0CC0FDD1F8A95E2F7C22BD32BC8
:101CF000DC6872CF2C2F26952695277080E2289FCE
:101D0000900111248C2F8370C1E0D0E002C0CC0F71
:101D1000DD1F8A95E2F7C22BD32BDA685DCF8C2FBB
:101D20008F710E947A0FC82FD0E0DC2FCC27CC27F0
:101D3000DF71D06251CF8C2F8F710E947A0F55E0E6
:101D4000D695C7955A95E1F7CF70D0E0DC2FCC2718
:101D5000282F30E084FF05C044E0220F331F4A954E
:101D6000E1F7C22BD32BD06937CF8D2F8F710E9413
:101D70007A0F182FCE0199270E94D80EC12FD0E0DC
:101D8000DC2FCC27CC27DF71C82BD92BD2CF462F05
:101D90007A3030F4663020F4672F0E943E1E08959A
:101DA00090E080E008950E94C70E0E94A90D08955A
:101DB00082389105B9F1B0F48133910509F47DC001
:101DC00048F48932910509F46DC08A32910509F40D
:101DD0007BC008958533910509F45FC0893391056F
:101DE00009F10895833E9105D9F138F4803E9105BB
:101DF00029F1823E910579F10895863E9105D9F148
:101E0000873E910509F43EC0843E910541F520913D
:101E1000F20221FF24C08091F10284FD19C087EEF7
:101E200090E008952091F102237009F05AC02091AA
:101E3000F20223FF14C089E290E008952091F1029C
:101E400020FD38C03091F20230FF09C024FF43C0AA
:101E500090E080E008952091F10222FDF7CF0895EF
:101E60002091F10222FD3AC03091F20230FD39C0DA
:101E700024FFF5CFEDCF2091F10223FFF0CF24FD19
:101E8000E7CFCDCF2091F10223FD2EC03091F20299
:101E900031FFEECF84EE90E008952091F10225FF0E
:101EA000DECFC9CF2091F10225FD21C02091F202A1
:101EB00023FFD5CF89E390E0D2CF2091F10226FF16
:101EC000CECF8AE290E008952091F10226FFC7CF9D
:101ED00081E390E0089583EE90E0089582EE90E033
:101EE000089580EE90E0089586EE90E0089585E3F1
:101EF00090E008959091F10292FF06C0282F28717A
:101F00002830F9F4877F846093FF06C0282F28715A
:101F10002831F1F4877E84612091F20220FF06C00F
:101F2000382F38713830D9F4877F816021FF06C09F
:101F3000282F28712831D1F4877E816194FD877E16
:101F40000895282F24712430F9F68B7F8860DCCF28
:101F5000282F2471243101F78B7E8861DDCF382F43
:101F60003171313019F78E7F8860E0CF282F2171D1
:101F7000213121F78E7E8861E1CF1092ED0210921F
:101F8000EE021092EF021092F0020895CF92DF92CB
:101F9000EF92FF926B017C010E94D51181110EC05E
:101FA0000E940824C61AD70AE80AF90AC092ED026C
:101FB000D092EE02E092EF02F092F002FF90EF90EA
:101FC000DF90CF9008950F931F930E94D51188231F
:101FD00029F00E9408241F910F9108950E9408245F
:101FE0000091ED021091EE022091EF023091F0028B
:101FF000600F711F821F931FEECF80E008950E9433
:10200000240C08950E9462112FEF86E791E0215081
:1020100080409040E1F700C000000E94621180E023
:102020000E943F1080FF04C00E94FF0F0E946324A3
:1020300008950E94021008950E942B0C811102C085
:102040000E94BE0C0E94370C809378020E94410CC3
:102050009093F2028093F1020E9419100E943C0CAE
:102060000E94EC068091E6010E94040708950895FD
:102070000E943710089508950E943B100895E82F9C
:10208000F0E0E250FD4F80810895089580EA8A953E
:10209000F1F7089500C008950E944610089508952C
:1020A0000E944F100895A5E0B0E0E9E5F0E10C943E
:1020B000EF2B0E94D511F82E60910803882309F4B4
:1020C00040C085E0E82E8E010F5F1F4FF8018E2D76
:1020D00011928A95E9F7862F90E0B80182509D4FC2
:1020E0000E9432128823B9F08091F30290E045E01B
:1020F00050E0B80182509D4F0E942E2C21E0209389
:102100007902892B91F4F12C0E943C108F2D259699
:10211000E6E00C940B2C809179028823A1F3F8015E
:102120001192EA94E9F710927902A091F302B0E0DB
:10213000A250BD4F85E0F80101900D928A95E1F71C
:10214000E3CF70E062507D4F8091F30290E08250C7
:102150009D4F0E94B9120E945010D8CFF894E82FDA
:10216000E295EF70F0E031A1282F2F7081E090E030
:1021700001C0880F2A95EAF7982F9095932391A391
:1021800092A1892B82A378940895CF93DF93CFEA0D
:10219000D1E089918F3F11F00E94AE1081E0C43BE5
:1021A000D807B9F7C9EAD1E089918F3F11F00E94B1
:1021B000AE1081E0CF3AD807B9F7DF91CF910895FB
:1021C000B0E0A0E0E6EEF0E10C94ED2BEC01D62EB1
:1021D000062F10E0C80181559E4F7C01FC018081D3
:1021E0008F3F09F445C0F894E82FE295EF70F0E0D6
:1021F00091A18F7021E030E001C0220F8A95EAF7AB
:10220000892F822B81A382A12095282322A3789451
:102210000E944A10E9EAF1E04FEA51E031E0C12CB6
:1022200021912F3F51F1A22FA295AF70B0E090966F
:102230008C9190E02F7002C0959587952A95E2F7D2
:1022400080FD1BC0832FC82A330F4E175F0741F74D
:10225000F70180818F3F11F00E94AE1061E0C11044
:1022600001C060E08D2D0E944C10C00FD11FC882AC
:10227000CDB7DEB7E8E00C94092C80E0E4CF809184
:1022800002018091020195E0811190E09093080392
:1022900085E0891B8093F3020E94C5108AE0EEEF6F
:1022A000F2E0DF01982F1D929A95E9F7E4EFF2E052
:1022B000DF011D928A95E9F785E00E94A0110E9436
:1022C00038100895AAE0B0E0E8E6F1E10C94F02BB4
:1022D0008E010F5F1F4F8AE0F80111928A95E9F78E
:1022E000F12C6F2DC8010E94E010F394F5E0FF126D
:1022F000F8CF4AE050E0B80184EF92E00E942E2C23
:1023000021E0009709F420E0892B41F08AE0F801F0
:10231000A4EFB2E001900D928A95E1F76091080375
:1023200070E062507D4F45E084EF92E00E94A11181
:10233000182F0E945310812B2A96E5E00C940C2C48
:102340000895B0E0A0E0E7EAF1E10C94ED2B7C0108
:102350008B01C42FD0E0AE010E942E2C6C01AE0187
:10236000B701C8010E943B2C81E0C114D10409F4DB
:1023700080E0CDB7DEB7E8E00C94092C0E94082479
:1023800060937E0270937F0280938002909381021B
:10239000089580937D020895809182028A3010F022
:1023A00010927D0280917D020895CF93DF938091FA
:1023B0007C02811117C0C8ECD0E00E94BC2B8111B7
:1023C0000EC08FE39CE90197F1F700C00000219750
:1023D000A1F782E080937C020E94B72B03C081E0CA
:1023E00080937C0281E090917C02913009F080E042
:1023F000DF91CF91089580917D02811115C00E94D7
:10240000D511811111C060917E0270917F0280917F
:102410008002909181020E942324693B7B408105C8
:10242000910510F00E94872408950E94D511089507
:102430000E941512809302010E94D51181110E9401
:10244000681208950E94D511811104C00E946B1278
:102450000E94BE11089581E0909182029A3008F0A6
:1024600080E008950F931F93CF93DF93EC018B01CE
:10247000809182028A30B8F4B801CE010E94B6126F
:10248000C82F811122C0809182028F3FB9F40E942F
:10249000FC2390937B0280937A028C2FDF91CF9163
:1024A0001F910F91089580917A0290917B020E9472
:1024B0001424843F914000F7C0E0EFCF8F5F8093FA
:1024C00082028A3020F7C1E0E8CF10928202E5CF85
:1024D0000E94992008950E949C200895B0E0A0E0F9
:1024E000E4E7F2E10C94EE2B7901C82F880FDD0BA5
:1024F00041155105A9F0FE0193E0EE0FFF1F9A95DB
:10250000E1F7ED5FFE4F818192818D579D4F2081D4
:1025100030E04217530708F49A01A9010E943B2CAE
:10252000CE010E948521D82E8823D1F001151105F6
:10253000B9F083E0CC0FDD1F8A95E1F7FE01ED5F76
:10254000FE4F438150E00417150708F4A801CD5F42
:10255000DE4F6C817D816D577D4FC7010E943B2C02
:102560008D2DCDB7DEB7E7E00C940A2C0E94C8137E
:1025700008950E94E9130895A1E0B0E0E2ECF2E1D1
:102580000C94F12B81E089830E94CC1181110FC042
:1025900010E000E030E020E041E050E0BE016F5F7D
:1025A0007F4F83E00E946E1289830E94C911898146
:1025B0002196E4E00C940D2CA4E0B0E0E2EEF2E110
:1025C0000C94F12B60919B0270919C0280919D0272
:1025D00090919E020E94232411E0643671058105CA
:1025E000910518F10E94E30F6E5F7F4F8F4F9F4F51
:1025F00069837A838B839C8310E000E030E020E0E5
:1026000044E050E0BE016F5F7F4F82E00E946E1297
:10261000182F882351F00E94082460939B02709326
:102620009C0280939D0290939E02812F2496E4E069
:102630000C940D2CB0E0A0E0E0E2F3E10C94EB2B65
:102640007C015B016A010E942B1201E010E08823EB
:1026500011F00AE010E0C1E0D0E0B501C701F601D9
:102660000995811104C021960C171D072CF4CDB7D4
:10267000DEB7EAE00C94072CCC9F9001CD9F300D83
:10268000300D112490E080E045E34A95F1F7000019
:10269000019682179307C1F7E0CFA6E0B0E0E3E52B
:1026A000F3E10C94EB2B7B01C090B401D090B50109
:1026B00001E010E09E012A5F3F4F50E040E070E0F3
:1026C00060E080E00E946E12182F882309F448C051
:1026D00056018FEFA81AB80A60919702709198027C
:1026E0008091990290919A020E9423246436710588
:1026F0008105910568F105E010E09E012F5F3F4FD5
:1027000050E040E070E060E081E00E946E12D82E60
:1027100065E070E0C5010E940F1811E09E819813DA
:1027200010E01D2141F10E940824609397027093EC
:1027300098028093990290939A0285E0FE01319667
:10274000A2E9B2E001900D928A95E1F711E013C081
:1027500065E070E0C5010E940F189E818913CBCF00
:1027600085E0F6013196DE01119601900D928A9571
:10277000E1F71111E2CF85E0E2E9F2E0D701019043
:102780000D928A95E1F7812F2696EAE00C94072CAA
:102790000F931F93CF93DF93EC018B014DE453E133
:1027A0000E941A13811106C080E0DF91CF911F9122
:1027B0000F9108954CED52E1B801CE010E941A1319
:1027C000882391F34CEB52E1B801CE010E941A1319
:1027D000ECCF0F931F93CF93DF93C091B401D091AF
:1027E000B501CE01019625E0FB01DC0101900D92BF
:1027F0002A95E1F765E070E00E940F1888836E81EA
:102800007F818885998500918E0210918F02209199
:10281000900230919102601771078207930751F07F
:1028200060938E0270938F02809390029093910236
:102830000E94C60F8A850E94C911DF91CF911F9116
:102840000F9108950E9411260E94250D0E941E26B8
:1028500008950E9423260E943A0D0E943D26089565
:102860000E9495230E94F7250E940D0D0E942214BC
:102870000E9429140E941B0DFBCF8091A50280FFAE
:102880000DC06091280170E0660F771F60387105F8
:1028900070F56115710569F1862F089581FF07C0F4
:1028A0006091280184E0689FB0011124EFCF60910E
:1028B000280182FD0AC08091A4028823A9F02091FA
:1028C000270160912801821710F088E0ECCF869FE5
:1028D000C001112433E0880F991F3A95E1F7622F68
:1028E00070E00E94C22BD2CF68E070E0D5CF8FE7B6
:1028F000089581E008958091A50280FF0CC0609149
:10290000240170E07595679575956795611571055A
:1029100049F1862F089581FF06C06091240170E07F
:1029200075956795F3CF6091240182FD0BC090915E
:10293000A3029923A1F060912301809124019617AD
:1029400038F0682F70E06038710500F38FE7089564
:10295000899FC001112470E00E94C22BF4CF61E076
:1029600070E0D7CF81E008958D3C31F40E943D1492
:1029700081958093A90208958E3C19F40E943D141C
:10298000F8CF8F3C31F40E943D1481958093A802CA
:102990000895803D19F40E943D14F8CF893D29F433
:1029A0000E947B148093AA0208958A3D21F40E941C
:1029B0007B148195F7CF8B3D31F40E947B14819578
:1029C0008093AB0208958C3D19F40E947B14F8CFDC
:1029D0009FE2980F983070F4815D990B21E030E010
:1029E00001C0220F8A95EAF78091A702822B80937B
:1029F000A70208958D3D31F48091A50281608093F6
:102A0000A50208958E3D21F48091A5028260F7CF42
:102A10008F3DB9F78091A5028460F1CF4091A80263
:102A20008D3C59F48091A90287FF0DC01092A90234
:102A300041110BC01092A40208C08E3C81F4809119
:102A4000A90218169CF3442381F08091AA02909168
:102A5000AB02892B09F05AC01092A30208958F3C53
:102A600049F447FFF0CF1092A8028091A90281118A
:102A7000ECCFE0CF803D19F41416ACF3E4CF909185
:102A8000AA02893D29F41916F4F61092AA02DBCFA6
:102A90008A3D19F497FFD7CFF8CF9091AB028B3DC9
:102AA00029F497FFD0CF1092AB02CDCF8C3D19F413
:102AB0001916CCF3C8CF9FE2980F983090F4815D3F
:102AC000990B21E030E0B90102C0660F771F8A95AB
:102AD000E2F7CB0180959091A70289238093A7020A
:102AE000B2CF8D3D31F48091A5028E7F8093A502F7
:102AF000AACF8E3D21F48091A5028D7FF7CF8F3D27
:102B000009F0A1CF8091A5028B7FF0CF08950E949C
:102B1000FC239C019091A8028091A902982B21F09E
:102B20003093A2022093A1029091AA028091AB025D
:102B3000982B21F03093A00220939F0286EA92E026
:102B40000E943322089586E0E6EAF2E0DF011D925A
:102B50008A95E9F71092A4021092A3021092A5029E
:102B60000895FC01828181110EC0838181110BC007
:102B70008481811108C091E08581811101C090E0BC
:102B8000892F8170089581E0FCCFA6E0B0E0EBECE6
:102B9000F5E10C94F22B86E0E6EAF2E0DE01119614
:102BA00001900D928A95E1F71092A8021092A90265
:102BB0001092AA021092AB028B819C81892B89F022
:102BC0008091A1029091A2020E941424AC019091E4
:102BD000A4029923C9F1809129018417150608F4EC
:102BE00040C08D819E81892B91F080919F029091B0
:102BF000A0020E941424AC019091A302992309F42D
:102C000071C0809125018417150608F479C0BE01B2
:102C10006F5F7F4F86EA92E00E944D23811105C0CD
:102C200086EA92E00E94B11581110E94871586E024
:102C3000FE013196A6EAB2E001900D928A95E1F785
:102C40002696E3E00C940E2C20912A018AE0289F1E
:102C5000900111242417350720F69F5F9093A4025A
:102C600002C09F3FD1F71B81112359F00E943D14F0
:102C70009FEF11160CF491E0899F802D1124809311
:102C8000A8021C81112359F00E943D149FEF1116D8
:102C90000CF491E0899F802D11248093A90230913A
:102CA000A802332309F49DCF2091A902222309F41D
:102CB00098CF45EB3403C0011124992359F0909328
:102CC000A80245EB240390011124332339F03093FB
:102CD000A90287CF81E08093A802F3CF81E080939F
:102CE000A9027FCF209126018AE0289F900111241C
:102CF0002417350708F08BCF9F5F9093A30202C083
:102D00009F3FD1F71D81112359F00E947B149FEF43
:102D100011160CF491E0899F802D11248093AA0252
:102D20001E81112359F00E947B149FEF11160CF4A1
:102D300091E0899F802D11248093AB023091AA02EB
:102D4000332309F464CF2091AB02222309F45FCF2F
:102D500045EB3403C0011124992359F09093AA0242
:102D600045EB240390011124332339F03093AB0257
:102D70004ECF81E08093AA02F3CF81E08093AB0233
:102D800046CF82E290E00E94442C833289F483E2B1
:102D900090E00E94442C893059F484E290E00E9433
:102DA000442C91E0823109F090E0892F81700895E0
:102DB00080E0FCCFCF93C82F6FEF811163E282E2F6
:102DC00090E00E94522C6FEFC11169E083E290E025
:102DD0000E94522C6FEFC11162E184E290E00E94E8
:102DE000522CCF910895089585E290E00E94442CE2
:102DF000682F70E090E080E008950895CF93C62F8B
:102E00000E94FD166C2F85E290E00E94522CCF911B
:102E1000089580E00E94DA1660E070E0CB010E9425
:102E2000FE160E94CA1D0E94991E81E00E94DA16B9
:102E300008950E94F3160E94F4160E94FD160E9447
:102E4000C116811102C00E940917089508959C01BE
:102E5000FB018281882351F0A90157574038510561
:102E600030F4822F0E94A91E80E0089581E0089529
:102E70002FEFFC01208308950E943817089580E009
:102E80000895B0E0A0E0E7E4F7E10C94ED2BEC014D
:102E9000E62E0E943F17811110C0E881E150E33116
:102EA000B8F4F0E0EC56F34D0C94D62B19828CE07C
:102EB0008A836E2DCE010E94EB24CDB7DEB7E8E009
:102EC0000C94092C89818230C1F028F4813061F0A2
:102ED0008FEF8883EECF833099F08430C9F71A8260
:102EE0001B821C821D82E5CF0E9408240E94DC2BDD
:102EF0006A837B838C839D83DCCF0E94F416F6CF9C
:102F00008A81082F10E06E0193E0C90ED11C9CE16C
:102F1000F92EF80E0A30110560F6802F0E943F103E
:102F2000F60181936F010F5F1F4FF012F3CFC1CFF6
:102F30008981823031F0853059F68A810E942617C6
:102F4000B8CF6A817B818C819D810E94DC2B0E949D
:102F5000FE16AFCF4B816A8189810E948C1D982714
:102F6000892798279D838C83A4CF2C813D8132278C
:102F7000232732274B816A8189810E94AE1D99CF18
:102F80000E94CA1D96CF6E2DCE010E943C1791CF94
:102F90000E944A1E89838DCF0E944C1E9827892744
:102FA00098279A83898385CF6B8170E089819A8184
:102FB000AE014C5F5F4F9827892798270E944F1ECC
:102FC00078CF6B8170E089819A81AE014C5F5F4F51
:102FD0009827892798270E94741E6BCF0E94991EFC
:102FE00068CF0E947A1DD6CF6B8170E089819A816B
:102FF000AE014C5F5F4F9827892798270E94F61DE6
:1030000058CF6B8170E089819A81AE014C5F5F4F30
:103010009827892798270E941A1E4BCF0895FC01F4
:10302000680F791F8FEF91E36E177F0709F40895FA
:103030002191822728E030E087FF06C0880F89278A
:1030400021503109C9F7F0CF880FFACFCF93DF9322
:10305000EC01FB018281882309F4D2C09E01305724
:103060002332310508F0B2C00E94410C9093F20265
:103070008093F102FE01E150F047E232F10520F4C5
:10308000E955F34D0C94D62B8091F1028160809329
:10309000F10293C08091F20288608093F2028DC0A9
:1030A0008091F1028260F3CF8091F1028460EFCFD2
:1030B0008091F1028860EBCF8091F2028160EDCFC8
:1030C0008091F2028260E9CF8091F1028061DFCFCE
:1030D0008091F1028062DBCF8091F1028064D7CFD2
:1030E0000E949B068091F1028068D1CF8091F1020D
:1030F0008C60CDCF8091F2028360CFCF8091F102BE
:103100008E7FC5CF8091F202877FC7CF8091F10279
:103110008D7FBDCF8091F1028B7FB9CF8091F1027D
:10312000877FB5CF8091F2028E7FB7CF8091F20278
:103130008D7FB3CF8091F1028F7EA9CF8091F10274
:103140008F7DA5CF8091F1028F7BA1CF0E949B063E
:103150008091F1028F779BCF8091F102837F97CF8F
:103160008091F2028C7F99CF8091F10282FB9927A6
:1031700090F921E0922790FB82F990FB83F987CFA9
:103180008091F202982F909591708E7F892B90FB01
:1031900081F983CF9091F102892F8F7B96FF806414
:1031A00076CF0E949B069091F102892F97FB87F9B9
:1031B00080586DCF81E00E94C10C8091F102909106
:1031C000F2020E94460C0E949B0680E0DF91CF91A4
:1031D000089580E0F0CF9091F102892F8F7E94FFC7
:1031E000806155CF9091F102892F8E7F90FF816091
:1031F0004ECF9091F202892F877F93FF88604DCF49
:1032000081E0E4CFB0E0A0E0E8E0F9E10C94EE2B3F
:10321000E82FF0E0EC5DFE4FD490282F2695269500
:10322000269530E0F901EC53FE4F0491877010E0D1
:10323000082E02C0159507950A94E2F70170112730
:10324000F901EC54FE4FE490F12C082E02C0F594E5
:10325000E7940A94E2F791E0E922FF24F901EC55A2
:10326000FE4FC491D0E002C0D595C7958A95E2F78C
:10327000C170DD270115110519F081EE0E9495033B
:10328000E114F10419F086EE0E9495038D2D0E9441
:103290003204E114F10419F086EE0E94E7030115EF
:1032A000110519F081EE0E94E703CD2B19F08CE295
:1032B0000E943204CDB7DEB7E7E00C940A2CEF92FF
:1032C000FF920F931F93CF93DF93EC01162F0AE029
:1032D0008881882309F454C0813009F04EC0898167
:1032E000813099F47E0122E0E20EF11C8A810E9475
:1032F0003204E7012196812F815050F3EFE9FFE07E
:103300003197F1F700C00000F7CF823041F47E0121
:1033100082E0E80EF11C8A810E949503EACF833097
:1033200041F47E01E2E0EE0EF11C8A810E94E70387
:10333000E0CF843011F02196DDCF2A81229690E0F3
:1033400080E0AE014F5F5F4F2053330B2A303105D1
:1033500048F0019778F2EFE9FFE03197F1F700C00C
:103360000000F7CF089FB001099F700D1124C9011B
:10337000860F971F2981EA01E4CF0E940219BACF74
:10338000CDB7DEB7E6E00C940B2C089508958BEED4
:103390000E94AE1B8A3F61F40E94A21B8093B1027F
:1033A0000E94A21B8093B2020E94A21B8093B302D0
:1033B0008091B1029091EB02892B9091B202209101
:1033C000B3023091AF0238273770492F422B50910A
:1033D000B402452B342B09F45BC08093AF02382F25
:1033E000307484FF60C0311103C0903809F097FF3A
:1033F00091E885FF5EC087FD03C0203809F027FFF4
:1034000021E8382F37703093B1022093B2029093A5
:10341000B3029091AE0282FF52C0911109C00E9486
:10342000FC239093AD028093AC0281E08093AE02C6
:103430009091B2028091B302292F282B99F022E0BB
:103440002093AE0287FD8F5F859581958093B402AE
:10345000892F97FD8F5F85958093B5021092B202F8
:103460001092B3028091B1028B7F8093B102809160
:10347000B2029091B302892B9091B402892B21F072
:1034800080EB92E00E94C61980EB92E00E9433220A
:103490001092B2021092B3021092B4021092B502CE
:1034A0001092B1020895311102C097FFA2CF9FE799
:1034B000A0CF87FD02C027FFA4CF2FE7A2CF913076
:1034C00001F58091AC029091AD020E9414248C32DF
:1034D0009140B8F48091B10284608093B10280EB96
:1034E00092E00E9433228FEF91EE24E081509040D1
:1034F0002040E1F700C000008091B1028B7F8093F3
:10350000B1021092AE02AECF85EF0E94AE1B0895BD
:1035100084EF0E94AE1B08958091B602811102C013
:103520000E94841A80EF0E94AE1B8091B602811126
:1035300002C00E94881A81E08093B60208950E941A
:10354000051B2FEF83ED90E3215080409040E1F781
:1035500000C000008FEF0E94AE1B0E94A21B0E94C1
:10356000A21B0E948C1A0E94C519089508952998DB
:10357000219A08952198299A08952198299A85E0F9
:103580008A95F1F7000083B18695817008950895BA
:103590002A98229A089522982A9A089522982A9A77
:1035A00085E08A95F1F7000083B182FB882780F9D6
:1035B00008950E94B71A0E94CB1A0895CF93DF9303
:1035C000EC010E94BD1A882311F0209721F4CE014E
:1035D000DF91CF91089585E08A95F1F7000021975A
:1035E000F0CFCF93DF93C2E3D0E00E94BD1A8111E8
:1035F00002C0209721F4CE01DF91CF91089585E09C
:103600008A95F1F700002197F0CF0E94B61A0E9428
:10361000C71A2FEF81E19AE7215080409040E1F7EF
:1036200000C000000E94D91A0895CF92DF92FF9245
:103630000F931F93CF93DF931092B7020E94BA1A91
:103640000E94CB1A84E690E00E94DE1A892BC9F012
:103650000E94CE1A8823B9F085E08A95F1F7000020
:103660000E94CE1A82E08093B7020E94D91AC0E06D
:103670008C2FDF91CF911F910F91FF90DF90CF9012
:10368000089581E0F0CF0E94F11A892B11F483E0B4
:10369000EACF10E000E0D1E0C0E0FF24F394CC24B6
:1036A000C394D12C82E390E00E94DE1A892B11F49E
:1036B00084E0D9CF0E94CE1A882341F0DF25C601CD
:1036C000002E01C0880F0A94EAF7C82B0E94F11A55
:1036D000892B11F485E0C7CF0F5F1F4F083011050C
:1036E00009F782E390E00E94DE1A892B11F486E04C
:1036F000BACF0E94CE1A8D1711F080E1B4CF0E948C
:10370000F11A892B11F487E0AECF82E390E00E949A
:10371000DE1A892B61F00E94CE1A81110AC085E061
:103720008A95F1F700000E94CE1A89E09CCF88E0CC
:103730009ACF0E94F11A892B11F48AE094CF0E944B
:10374000D91A96CFCF93CBEF0E94151BC15021F011
:103750009091B7029111F8CFCF910895EF92FF9217
:103760000F931F93CF93DF93E82E1092B7020E941E
:10377000D91A8FE891E00197F1F700C000000E948C
:10378000C81A0E94BA1A80E197E20E94DE1A892BB9
:1037900059F48AE08093B7020E94D91A80E0CDB72D
:1037A000DEB7E6E00C940B2CD0E0C0E011E0F12C89
:1037B00001E090E59A95F1F7C7010C2E02C09595AE
:1037C00087950A94E2F780FF09C010270E94CB1A60
:1037D0000E94F11A892B29F482E0DCCF0E94C81ADA
:1037E000F7CF82E390E00E94DE1A892B11F483E088
:1037F000D1CF2196C830D105E1F680E58A95F1F761
:10380000112341F00E94CB1A0E94F11A892B29F44E
:1038100084E0C0CF0E94C81AF7CF82E390E00E94F4
:10382000DE1A892B11F485E0B5CF90E59A95F1F772
:103830000E94CB1AC2E3D0E00E94CE1A882351F036
:10384000209711F486E0A6CF25E02A95F1F7000035
:103850002197F2CFCD2BB1F382E390E00E94DE1AE4
:10386000892B11F487E096CF0E94F11A892B79F405
:1038700088E090CF85E08A95F1F7000021970E94BB
:10388000CE1A811107C02097A9F789E083CFC2E340
:10389000D0E0F5CFCD2BC9F30E94D91A0E94A21B0C
:1038A0007ECFEBEFE80FEF3308F062C0F0E0E753B4
:1038B000F34D0C94D62B0E94BE0C81E008958091AC
:1038C0007802807F8093780281E08093BB02089524
:1038D0000E946D02F2CF90917802892F8E7F90FF27
:1038E00081608093780280FDE8CF817F80937802A9
:1038F000E4CF90917802892F8D7F91FF8260809331
:10390000780281FFDACF809178028160EFCF9091C9
:103910007802892F8B7F92FF84608093780282FDEA
:10392000F2CFCBCF90917802892F877F93FF886069
:103930008093780283FDE7CFC0CF0E949B069091D1
:10394000F102892F97FB87F980588093F102B5CF58
:1039500081E00E94EC060E949B06AFCF895391E064
:1039600001C0990F8A95EAF7892FF3CF8D51F7CFD0
:1039700080E0089580E008950E94BA1C0895CF93D6
:10398000C82F8091BB028130B9F0882331F082309A
:10399000A1F11092BB0280E00DC00E943D0B82326B
:1039A000D1F78C2F0E94BA1C81111BC08C2F0E9452
:1039B000511C8170CF9108950E943D0B823289F392
:1039C0008C2F0E94BC1C81110AC0C43199F060F494
:1039D000CB3029F0C03169F782E08093BB0281E0EF
:1039E000E8CF81E090E0E5CFC93221F0C833B9F3E8
:1039F00080E0DFCF1092BB02FBCFC93209F440C098
:103A0000F0F4C431E9F1A8F481E0C73099F680936D
:103A10002A0184E1809329018AE0809328018EE1C4
:103A20008093270188E08093240188E2809323011A
:103A300004C082EE8C0F8A3070F181E0BBCFC035BC
:103A400009F450C0B8F48AE0CF34B9F7E091B80275
:103A5000F091B902309789F32081082E000C990B60
:103A6000820F911D8F3F910509F00CF43FC08FEF3D
:103A70008083E3CFC135C1F181E0C23539F39ACFFC
:103A80008091BA028823C9F21092BA021092B90248
:103A90001092B802D2CFCD51C093BA02C330C9F050
:103AA00048F4C13099F089E291E0C23051F01092AF
:103AB000BA02C3CFC53099F078F083E291E0C63006
:103AC000B1F79093B9028093B802B7CF8AE291E040
:103AD000F8CF88E291E0F5CF87E291E0F2CF84E27F
:103AE00091E0EFCF86EFB2CF8FEFB0CF97FFC0CF8F
:103AF0001082A3CF84E0089550E0440F551F9CE04E
:103B0000699F400D511D112498E7899F400D511D5B
:103B10001124CA01869608950F931F93CF93DF93C4
:103B20008430C8F46A30B8F44630A8F40E947C1D92
:103B30008C010E94442CC82FD0E0DC2FCC27C80178
:103B400001960E94442C9E01282BC901DF91CF9140
:103B50001F910F91089590E080E0F8CF0F931F938D
:103B6000CF93DF93122F032F843078F46A3068F4F8
:103B7000463058F40E947C1DEC01602F0E94522CAC
:103B8000612FCE0101960E94522CDF91CF911F919F
:103B90000F9108950F931F93CF93DF93D0E0C0E070
:103BA00010E019C00E94F60121E030E08C171D06DC
:103BB00039F034F0402F612F8C2F0E94F8019C01C6
:103BC000402F612F8C2F0E94AE1D0F5F063051F7E2
:103BD0001F5F1A3011F000E0E5CF2196C430D10507
:103BE000F9F6DF91CF911F910F910895EF92FF9217
:103BF0000F931F93CF93DF93EC018A017C01E60EB4
:103C0000F71ECE018696CE15DF0529F4CDB7DEB7B7
:103C1000E6E00C940B2CC03E21E0D20740F40E9459
:103C2000442CF80180830F5F1F4F2196EACFF801E3
:103C30001082F9CFB0E0A0E0E0E2FEE10C94ED2BC1
:103C40007C016A018C01060F171FEC01CE018696DC
:103C5000C017D10729F4CDB7DEB7E8E00C94092CE2
:103C6000C03E21E0D20740F4FE01EE19FF09EC0D41
:103C7000FD1D60810E94522C2196E8CF843038F4DB
:103C80006A3028F4463018F40E948C1D089590E0A4
:103C900080E0089580E108958AEF91E00895EF9221
:103CA000FF920F931F93CF93DF93EC018A017C0166
:103CB000E60EF71ECE018A5F9D4FCE15DF0529F473
:103CC000CDB7DEB7E6E00C940B2CCA3F21E0D2075B
:103CD00040F40E94442CF80180830F5F1F4F21960F
:103CE000E9CFF8011082F9CFB0E0A0E0EAE7FEE109
:103CF0000C94ED2B7C016A018C01060F171FEC015F
:103D0000CE018A5F9D4FC017D10729F4CDB7DEB72A
:103D1000E8E00C94092CCA3F21E0D20740F4FE01F0
:103D2000EE19FF09EC0DFD1D60810E94522C2196B9
:103D3000E7CFCF93DF93C6E0D2E060E0CE010E94F0
:103D4000522C2196C11584E0D807B9F7DF91CF91A5
:103D50000895A8E0B0E0EFEAFEE10C94EB2BF82E1A
:103D60008FE08F1508F46EC08FEF93E00E94442C13
:103D7000811168C006E012E0F11035C0FE013196F5
:103D80006F0188E011928A95E9F77801FFEFEF1A49
:103D9000FF0AC8010E94442C89831A82882309F4EF
:103DA00051C08130D1F4580182E0A80EB11CC70186
:103DB0000E94442C8A83882309F444C09FEF980F03
:103DC0009330F0F4780193E0E90EF11CC5010E94F4
:103DD000442C8B838823B1F11C8260E0C6010E94D1
:103DE0005F198701D2CF011594E0190759F1C80175
:103DF0000E94442C811101C0FA940F5F1F4FBCCF69
:103E00007501843051F702E010E07501EFEFEE1A12
:103E1000FE0AC5010E94442CF601E00FF11F8083C9
:103E2000882381F08C3741F4E2E0F0E0EC0FFD1FD5
:103E3000E00FF11F1082D1CF0F5F1F4F57010730E6
:103E4000110519F72896EAE00C94072CCF93DF931D
:103E5000EB0186319C4711F50E943D0B9A81992315
:103E600099F08A7A91E009F490E09093BC02811174
:103E700009C089E20E94150B0E947E0B80E0DF9151
:103E8000CF91089585E3F6CF8091BC02811104C0E3
:103E900089E20E941D0BF0CF85E3FBCF81E0EFCFDD
:103EA0000F931F93CF93DF93C42FD22FFC018281F6
:103EB0008823C9F04093BF020E94FC239093BE0266
:103EC0008093BD0280E28C0F883040F4C77081E09F
:103ED00001C0880FCA95EAF70E943B04DF91CF9199
:103EE0001F910F9108951091BF02141332C0809159
:103EF000BD029091BE020E941424883C910548F5B1
:103F0000C0E2CD0F1D17B9F080E2810F883040F478
:103F1000177081E001C0880F1A95EAF70E944204E9
:103F2000C83048F481E09D2F977001C0880F9A95A2
:103F3000EAF70E943B04802F0E943204C83070F6DA
:103F4000D77081E001C0880FDA95EAF70E94420439
:103F5000C5CF80E28C0F883008F6C77081E001C0C1
:103F6000880FCA95EAF7F2CF0F93DB0188519C477F
:103F700087309105A0F5FC01E85FF24D0C94D62B3B
:103F800006E221EE41EE6AE17CE7CD010E94501F7E
:103F900080E00F91089507E225EE45EE6BE17CE7A6
:103FA000F4CF06E221EE40EE68E17CE7EECF07E2D7
:103FB00025EE44EE69E17CE7E8CF06E221EE42EE31
:103FC0006CE17CE7E2CF07E225EE46EE6DE17CE7AF
:103FD000DCCF08E221E045EE6EE17CE7D6CF129619
:103FE0008C91882319F01092BF02D3CF81E0D1CFFA
:103FF0001F93CF93DF9387372CE7920759F0C1E0E7
:1040000088379C47E1F4FB01C281CC2371F10E9407
:104010003B2006C0FB01C281CC23B1F00E943820B6
:104020000E9419070E943E20D82F0E943B20C82FD3
:104030000E9438204D2F6C2F0E944108C0E08C2F29
:10404000DF91CF911F9108950E9438200E9425078B
:104050000E943E20182F0E943B20D82F0E9438201B
:10406000412F6D2F0E944108EACF0E943B20EECFE6
:1040700080912D01089580912C01089580912B014C
:1040800008958EE1489B02C08150E1F7489BFECF26
:104090000895589880E28A95F1F7589A0895FC019E
:1040A0003BE03A95F1F798E020E080E031E040E134
:1040B0004A95F1F7880F489B02C08160232742E0B0
:1040C0004A95F1F7000040E14A95F1F7915079F7F0
:1040D00090E19A95F1F799B132E03A95F1F7000045
:1040E00040E14A95F1F7917092272081920F9083D9
:1040F0000895A1E0B0E0EFE7F0E20C94EF2B198215
:104100008C017C01E60EF11C0E151F0541F481E0C7
:104110009981911180E02196E6E00C940B2C0E948D
:104120004120CE0101960E944F20F80181938F011A
:10413000EBCF509A589A08955098589AE89AE9E621
:10414000F0E080818C7F808308956150770B91E04F
:1041500001C0990F6A95EAF720E031E0911108C09B
:10416000222391F0589A80E28A95F1F758980895A1
:10417000492F482339F0589A232740E24A95F1F70E
:104180009695ECCF5898F9CF5898EDCFFF920F93B2
:104190001F93CF93DF93EC018C01060F111DC01705
:1041A000D10729F4CDB7DEB7E5E00C940C2CF990DB
:1041B0000E94492068E08F2D0E94A520F0CF1F9219
:1041C0000F920FB60F9211240F931F932F933F93CB
:1041D0004F935F936F937F938F939F93AF93BF930F
:1041E000EF93FF93CF93DF930F92CDB7DEB7198292
:1041F0000E944120CE0101960E944F20082F069573
:1042000006950695282F22952570902F9570290FD9
:10421000922F937026952695920F982797708981F3
:10422000982B09F05CC0053008F059C080E18A95F0
:10423000F1F7589A509A82E08A95F1F700C05898A1
:1042400088E0089F80011124D801AD5FBE4F16960B
:10425000ED91FC9117973097A9F06091B40170919E
:10426000B50114962D913C911597260F371F119685
:104270008D919C911297680F791F13964C9113970B
:104280008C910995F801ED5FFE4F6381662351F033
:104290002091B4013091B50184819581820F931FE3
:1042A0000E94C6200E94492080E18A95F1F7589823
:1042B0005098589A80E18A95F1F7F801ED5FFE4F2A
:1042C0006081662351F02091B4013091B501818164
:1042D0009281820F931F0E9479200E9441200F90AB
:1042E000DF91CF91FF91EF91BF91AF919F918F910E
:1042F0007F916F915F914F913F912F911F910F91FE
:104300000F900FBE0F901F9018950F931F93CF9390
:10431000DF93EC0105970CF04CC0F894509A589834
:1043200085E08A95F1F700009C2F969595708C2F6B
:104330008570980F892F83709695969523E0CC0F02
:10434000DD1F2A95E1F7980F8E01092B0E94492065
:1043500000C068E0802F0E94A52080E18A95F1F7D7
:104360005098589A489B1EC087E090E048991CC01E
:10437000FE01ED5FFE4F63816623F9F02091B401E9
:104380003091B50184819581820F931F0E9479201D
:10439000811113C0509A589A7894DF91CF911F9150
:1043A0000F91089500C0DECF019729F4509A589AD2
:1043B000789480E0F2CF00C0D9CF0E94412080E203
:1043C0008A95F1F75898509A80E18A95F1F7CD5F78
:1043D000DE4F6881662351F02091B4013091B50120
:1043E00089819A81820F931F0E94C6200E944920D2
:1043F000789481E0D2CF9093C7018093C60108954D
:104400009093C6028093C50208950E94D511811130
:1044100003C08091C0020895E091C502F091C602E8
:10442000309729F00190F081E02D0995089580E002
:104430000895E091C502F091C602309799F020915D
:104440003601222359F02091F10227FF07C0DC0139
:104450002C9111962C93119726E02C930280F381D6
:10446000E02D09950895E091C502F091C6023097BC
:1044700039F022E0DC012C930480F581E02D0995D0
:104480000895A3E0B0E0E7E4F2E20C94F32B20916E
:10449000C3023091C40228173907A1F09093C402D7
:1044A0008093C302E091C502F091C602309751F0AB
:1044B00023E029839B838A830680F781E02DCE0148
:1044C000019609952396E2E00C940F2CA3E0B0E04E
:1044D000ECE6F2E20C94F32B2091C1023091C2027F
:1044E00028173907A1F09093C2028093C102E0918E
:1044F000C502F091C602309751F024E029839B83D6
:104500008A830680F781E02DCE01019609952396D6
:10451000E2E00C940F2CFC01329680913601882346
:1045200021F08091F1029EE187FF96E080E09150BA
:1045300008F4089521912223D1F38F5FF8CF6623E9
:1045400001F1209136012223F1F02091F10227FFA1
:104550001AC0462F4695469546954E3190F46770A1
:1045600021E030E002C0220F331F6A95E2F7840F8A
:10457000911DFC01828190E02823392381E0232BC7
:1045800069F480E00895FC0132960896219126177F
:1045900021F0E817F907D1F7F4CF81E008959C01E5
:1045A000FC0132969FEF80E04191461751F09F3F0A
:1045B00019F4411101C0982F8F5F8630A9F79F3FF2
:1045C00009F40895290F311D97FD3A95F901628389
:1045D0000895FC01329608962191261303C0DF014D
:1045E00011971C92E817F907B9F70895E62FE69599
:1045F000E695E695EE3168F4E80FF92FF11D677046
:1046000021E030E001C0220F6A95EAF78281822B17
:1046100082830895E62FE695E695E695EE3170F4EF
:10462000E80FF92FF11D677021E030E001C0220F83
:104630006A95EAF7209582812823228308952091A4
:104640003601222339F02091F10227FF03C00E9496
:10465000F62208950E94CF22089520913601222348
:1046600039F02091F10227FF03C00E940A23089528
:104670000E94E9220895FC01329680913601882338
:1046800051F08091F10287FF06C08EE1DF011D929B
:104690008A95E9F7089586E0F9CF46E050E00E9458
:1046A0002E2C21E0892B09F420E0822F0895089513
:1046B0000E9457230895811106C081E08093C702AC
:1046C0000E945823089582E0F9CF83E08093C702C7
:1046D0000E94582308950E945B23089581E08093EF
:1046E000C7020E94582308950E946E2308950895DA
:1046F00008950E9478230895089508950E947723CD
:104700000895CF930E947C230E9462110E947D2312
:10471000C0E08C2F0E943F10811105C0CF5FCA30CE
:10472000C1F7CF91089581E0FCCF85B7806885BF40
:1047300085B7806885BF08951F921FB61F92112408
:104740008F939F93AF93BF938091C802811113C041
:104750008091090390910A03A0910B03B0910C037F
:104760004196A11DB11D8093090390930A03A09364
:104770000B03B0930C03BF91AF919F918F911F904A
:104780001FBE1F90189580911103843031F10E9453
:10479000D9021092C80288E190E020E40FB6F894A4
:1047A000A895809360000FBE2093600083B7817F3F
:1047B000846083BF83B7816083BF7894889583B713
:1047C0008E7F83BF0FB6F894A895809160008861B2
:1047D00080936000109260000FBE08950E949B06B7
:1047E0000E94DE02089582E084BD93E095BD9AEFB9
:1047F00097BD80936E0008952FB7F89480910903B8
:1048000090910A03A0910B03B0910C032FBF089560
:104810002FB7F8946091090370910A0380910B03FC
:1048200090910C032FBF08959C014FB7F89480918D
:10483000090390910A03A0910B03B0910C034FBFA1
:10484000821B930B0895CF92DF92EF92FF922FB7C6
:10485000F894C0900903D0900A03E0900B03F09005
:104860000C032FBFA7019601261B370B480B590BD2
:10487000CA01B901FF90EF90DF90CF90089578942E
:104880001F921FB61F9211248F939F93AF93BF93D4
:104890008091090390910A03A0910B03B0910C033E
:1048A0000196A11DB11D8093090390930A03A09363
:1048B0000B03B0930C03BF91AF919F918F911F9009
:1048C0001FBE1F90189581E08093E00080E28093E6
:1048D000D8001092C9008FE19EE40197F1F700C063
:1048E000000087E090EBDC0180931A0390931B0398
:1048F000A0931C03B0931D0388E19CE00FB6F894CD
:10490000A895809360000FBE90936000FFCF88E170
:104910009CE00FB6F894A895809360000FBE90932A
:104920006000FFCF8091E90208959B01BA01909148
:1049300011039430E9F48F708093E9009FEF809128
:10494000E800915085FD06C085ED8A95F1F70000DD
:104950009111F5CF8091E80085FF0AC050E040E05A
:10496000C9010E94E1268091E8008E778093E800DB
:10497000089543E050E0BC0184E00E94952408952E
:1049800046E050E0BC0184E00E9495240895CF9356
:10499000DF93EC0180913601811111C048E050E0B5
:1049A000BE0181E00E94952480E2FE01A9ECB2E004
:1049B00001900D928A95E1F7DF91CF910895809152
:1049C000F10287FF05C040E284E050E0BE01EACF7B
:1049D00048E081E0FACF603231F440E250E0BC01BF
:1049E00082E00E949524089580911003811109C0EE
:1049F0000E94C0280E941D298091E200846080935B
:104A0000E20008951092100308950E946E23089505
:104A100060910D0381E0611101C080E00E94652377
:104A200008959091110381E0943009F080E0609145
:104A30000D030E946B23089542E061EC81E00E9427
:104A40003C2842E261EC84E00E943C2842E261ECB6
:104A500082E00E943C2842E260EC83E00E943C2815
:104A60009091110381E0943009F080E060910D0392
:104A70000E945B23089580911303833009F463C07F
:104A800030F48130E1F1823009F4A0C008958A3019
:104A900009F48CC08B3009F471C0893009F052C020
:104AA00080911203813209F04DC0809116039091DC
:104AB0001703009719F0029709F044C08091E800AD
:104AC000877F8093E8008091E80082FF37C0909153
:104AD000F3008091F200029731F48091F10081306F
:104AE00011F0863021F48091F1008093E9028091E9
:104AF000E8008B778093E8000E94702823C08091A3
:104B00001203813AF9F48091E800877F8093E800EE
:104B10008091160390911703892B61F460E289EC70
:104B200092E070E00E947F278091E8008B7780936D
:104B3000E800089560E090E080E0F3CF80911103F9
:104B40008111C1CF089580911203813AD9F78091E4
:104B5000160390911703892BA9F78091E800877FAE
:104B60008093E8008091E80080FFFCCF80913601BF
:104B70008093F1008091E8008E77BCCF8091120382
:104B8000813201F78091160390911703892BD1F69A
:104B90008091E800877F8093E8000E9470288091D0
:104BA0001403809336010E949B060895809112039E
:104BB000813241F68091E800877F8093E8000E946F
:104BC0007028809115038093EA0208958091120362
:104BD000813A09F0B7CF8091E800877F8093E800A1
:104BE0008091E80080FFFCCF8091EA02C1CF84B7BA
:104BF000877F84BF0FB6F894A89580916000886184
:104C000080936000109260000FBE80E890E00FB6C5
:104C1000F89480936100909361000FBE0E9474230A
:104C200008950E94C0280E941D29E2EEF0E08081D4
:104C30008460808378940E949C2B08958EE291E09A
:104C40000E940022089580911103853031F48091F3
:104C50001103853019F00E94EE2308950E94C323AA
:104C600080910F03882399F30E948123882379F38D
:104C70000E94CB260E949B06EACFA0E2B0E0E3E4CC
:104C8000F6E20C94F32B80911103843009F583E054
:104C90008093E9008091E80082FF1AC08091E800CB
:104CA00090E085FF09C050E040E060E270E0CE0196
:104CB00001960E94302791E08091E8008B778093E5
:104CC000E800992329F060E2CE0101960E94411785
:104CD000A096E2E00C940F2C9A0140911803509199
:104CE00019030E9474260895492F55274330510512
:104CF00021F168F44130510509F443C042305105B7
:104D000009F444C090E080E050E040E026C0413229
:104D1000510551F142325105A9F76330710590F701
:104D2000FB01EE0FFF1FE754FE4F408151816A5493
:104D30007E4FFB01808190E010C099278130910562
:104D400081F0009729F00297E9F6E4EDF1E002C066
:104D5000EEEEF1E0849190E0AF01F90151834083E0
:104D60000895E6EEF1E0F6CF6330710558F6660F70
:104D7000771FFB01E154FE4F4081518189E090E0B3
:104D8000ECCF82E190E04DE452E0E7CF8BE590E09C
:104D900042EF51E0E2CF80E189BD82E189BD09B4F3
:104DA00000FEFDCF8091D8008F7D8093D800809148
:104DB000E00082608093E0008091E00081FDFCCF04
:104DC0000895AF92BF92CF92DF92FF920F931F93FD
:104DD000CF93DF936C01EB018A010E948F28F82E9C
:104DE000811123C00115110539F0F80180819181ED
:104DF000C81BD90BC80ED91EB12CA12C2097A9F025
:104E00008091E80085FD22C08091E8008E77809334
:104E1000E80001151105A1F0F80180819181A80E2B
:104E2000B91EB182A08285E0F82E8F2DDF91CF913F
:104E30001F910F91FF90DF90CF90BF90AF9008959A
:104E40000E948F288823D1F2F82EEFCFF6018191AE
:104E50006F018093F1002197FFEFAF1ABF0ACECF09
:104E6000AF92BF92CF92DF92FF920F931F93CF9397
:104E7000DF936C01EB018A010E948F28F82E8111CB
:104E800023C00115110539F0F80180819181C81BFB
:104E9000D90BC80ED91EB12CA12C2097A9F0809156
:104EA000E80085FD22C08091E8008B778093E800C0
:104EB00001151105A1F0F80180819181A80EB91E9C
:104EC000B182A08285E0F82E8F2DDF91CF911F91C6
:104ED0000F91FF90DF90CF90BF90AF9008950E9408
:104EE0008F288823D1F2F82EEFCF8091F100F601C0
:104EF00081936F012197FFEFAF1ABF0ACECFFC015C
:104F0000809118039091190386179707A0F06115F7
:104F1000710529F49091E8009E779093E80090E065
:104F20006115710551F4911108C08091E80082FF6C
:104F300034C080E00895BC01F2CF80911103882332
:104F4000C1F18530C1F18091E80083FD30C08091CE
:104F5000E80082FDEACF8091E80080FFE1CF8091F8
:104F6000F3002091F200382F6115710519F02830F7
:104F7000310558F091E02830310509F090E020919A
:104F8000E8002E772093E800CBCF81918093F10049
:104F9000615071092F5F3F4FE7CF80911103882344
:104FA00041F0853041F08091E80083FFBECF81E081
:104FB000089582E0089583E00895FC01809118032C
:104FC0009091190386179707A0F06115710529F4D0
:104FD0008091E8008E778093E80090E0611571057C
:104FE00051F4911108C08091E80082FF35C080E043
:104FF0000895BC01F2CF809111038823C9F1853057
:10500000C9F18091E80083FD31C08091E80082FD04
:10501000EACF8091E80080FFE1CF8091F3002091FA
:10502000F200382F6115710519F02830310558F05C
:1050300091E02830310509F090E08091E8008E770A
:105040008093E800CBCF84918093F100319661503A
:1050500071092F5F3F4FE6CF80911103882341F004
:10506000853041F08091E80083FFBDCF81E0089555
:1050700082E0089583E00895982F973028F08F708C
:105080008093E90081E008959093E900242F762F22
:1050900050E0981731F07091EC002091ED005091A4
:1050A000F00021FD02C09F5FE8CF3091EB003E7F12
:1050B0003093EB003091ED003D7F3093ED00309167
:1050C000EB0031603093EB007093EC002093ED0027
:1050D0005093F0002091EE0027FDE5CF80E0089589
:1050E0008091120387FF13C08091E80082FF06C001
:1050F0008091E8008B778093E80004C080911103D1
:105100008111F2CF0895809111038823D9F3809102
:10511000E80080FFF8CF8091E8008E77ECCF2091F7
:10512000E4003091E50095E6A9012091EC00822F82
:10513000817020FF06C08091E80080FF06C080E0FB
:1051400008952091E80022FD1AC080911103882360
:1051500089F0853089F08091EB0085FD0FC02091AA
:10516000E4003091E50042175307F9F29150E1F65F
:1051700084E0089582E0089583E0089581E0089531
:105180000E942F290E943729E0EEF0E080818160A3
:105190008083E8EDF0E080818F77808319BCA7EDF4
:1051A000B0E08C918E7F8C9380818F7E8083109273
:1051B000100308950F931F93CF93DF930E942F291D
:1051C0000E943729C8EDD0E088818F778883888155
:1051D0008068888388818F7D888319BC1092110331
:1051E00010920D0310920F0310920E0300EE10E0C8
:1051F000F80180818B7F808388818160888342E091
:1052000060E080E00E943C28E1EEF0E080818E7F4B
:105210008083E2EEF0E0808181608083808188601D
:105220008083F80180818E7F80838881806188837C
:10523000DF91CF911F910F910895E8EDF0E080810B
:105240008F7E8083E7EDF0E080818160808384E061
:1052500082BF81E0809310030E94DA280895E8ED70
:10526000F0E080818E7F80831092E200089510929A
:10527000DA001092E10008951F920F920FB60F927C
:1052800011242F933F934F935F936F937F938F934B
:105290009F93AF93BF93EF93FF938091E10082FFC1
:1052A0000BC08091E20082FF07C08091E1008B7FFC
:1052B0008093E1000E949B2B8091DA0080FF19C04F
:1052C0008091D80080FF15C08091DA008E7F809396
:1052D000DA008091D90080FF96C080E189BD82E12B
:1052E00089BD09B400FEFDCF81E0809311030E94C7
:1052F000F4248091E10080FF19C08091E20080FFDA
:1053000015C08091E2008E7F8093E2008091E200E0
:1053100080618093E2008091D80080628093D80001
:1053200019BC85E0809311030E9408258091E1005B
:1053300084FF2BC08091E20084FF27C080E189BDFB
:1053400082E189BD89B5982F917080FFFBCF809154
:10535000D8008F7D8093D8008091E1008F7E80936C
:10536000E1008091E2008F7E8093E2008091E20074
:1053700081608093E20080910D03882309F449C085
:1053800084E0809311030E9411258091E10083FF46
:1053900029C08091E20083FF25C08091E100877FD2
:1053A0008093E10082E08093110310920D038091BD
:1053B000E1008E7F8093E1008091E2008E7F8093F8
:1053C000E2008091E20080618093E20042E060E0D0
:1053D00080E00E943C288091F00088608093F0007B
:1053E0000E940525FF91EF91BF91AF919F918F9101
:1053F0007F916F915F914F913F912F910F900FBED1
:105400000F901F90189519BC109211030E9402254D
:1054100070CF8091E30087FD93E090931103B3CFA9
:105420001F920F920FB60F9211242F933F934F9319
:105430005F936F937F938F939F93AF93BF93CF931C
:10544000DF93EF93FF93D091E900DF708091EC0040
:10545000C82FC17080FDC0E81092E9008091F00073
:10546000877F8093F00078940E94542A1092E9007C
:105470008091F00088608093F000CD2BCF70C093B6
:10548000E900FF91EF91DF91CF91BF91AF919F9193
:105490008F917F916F915F914F913F912F910F90DD
:1054A0000FBE0F901F901895AAE2B0E0EAE5FAE26D
:1054B0000C94F22B82E193E02091F100FC01219306
:1054C000CF01F3E08A319F07B9F70E943B25809115
:1054D000E80083FF1EC180911203909113039A305C
:1054E00008F017C1E92FF0E0E15FF24D0C94D62BE4
:1054F000803899F0823809F00CC1809116038F70C2
:10550000873008F006C18093E9008091EB0085FBAD
:10551000882780F91092E90006C080910E039091CF
:105520000F03911182609091E800977F9093E800BB
:105530008093F1001092F1008091E8008E77E5C031
:10554000882309F4D3C0823009F0E3C080911403AA
:105550008111D6C0809116038F702FEF280F26304F
:1055600008F0D7C08093E9002091EB0020FFC8C06D
:10557000933031F48091EB0080628093EB00C0C0E7
:105580009091EB0090619093EB0021E030E001C03E
:10559000220F8A95EAF72093EA001092EA008091A0
:1055A000EB008860EACF8111B4C0109114031F771B
:1055B0008091E3008078812B8093E3008091E80064
:1055C000877F8093E8000E9470288091E80080FF28
:1055D000FCCF8091E30080688093E30082E01111AA
:1055E00083E08093110395C08058823008F091C009
:1055F00080911403909115038C3D23E09207A1F54F
:1056000083E08A838AE289834FB7F894DE01139698
:1056100020E03EE051E2E32FF0E050935700E491A8
:1056200020FF03C0E295EF703F5FEF708E2F90E098
:10563000EA30C0F0C7968D939D932F5F243159F7C0
:105640004FBF8091E800877F8093E8006AE270E0B6
:10565000CE0101960E947F278091E8008B7780938E
:10566000E80057C0C096E7CF60911603709117030A
:10567000AE014F5F5F4F0E946C26BC01892B09F47D
:1056800048C09091E800977F9093E80089819A81C3
:105690000E94DD27E1CF8038E1F58091E800877F27
:1056A0008093E80080910D038093F10045CF811134
:1056B00030C090911403923060F58091E800877FAC
:1056C0008093E80090930D030E94702880910D0351
:1056D000882311F084E005C08091E30087FDFACFB4
:1056E00081E0809311030E941C2513C08091140354
:1056F000813079F481E0933009F080E080930F03EA
:105700001092E9008091E800877F8093E8000E9472
:1057100070288091E80083FF0AC08091E800877FAD
:105720008093E8008091EB0080628093EB00AA9662
:10573000E3E00C940E2C0895CF93809111038823FD
:10574000A1F0C091E900CF709091EC00892F817099
:1057500090FD80E8C82B1092E9008091E80083FD5D
:105760000E94542ACF70C093E900CF9108950E94FF
:10577000C0281092110308958091E300881F8827A4
:10578000881F089597FB072E16F4009407D077FD25
:1057900009D00E941A2C07FC05D03EF49095819503
:1057A0009F4F0895709561957F4F0895EE0FFF1FED
:1057B0000590F491E02D09946927962769277827A9
:1057C0008727782708952F923F924F925F926F928A
:1057D0007F928F929F92AF92BF92CF92DF92EF9281
:1057E000FF920F931F93CF93DF93CDB7DEB7CA1B02
:1057F000DB0B0FB6F894DEBF0FBECDBF09942A882D
:10580000398848885F846E847D848C849B84AA84D4
:10581000B984C884DF80EE80FD800C811B81AA8161
:10582000B981CE0FD11D0FB6F894DEBF0FBECDBF2C
:10583000ED010895AA1BBB1B51E107C0AA1FBB1FA6
:10584000A617B70710F0A61BB70B881F991F5A950C
:10585000A9F780959095BC01CD010895FB01DC016D
:1058600004C08D910190801921F441505040C8F737
:10587000881B990B0895FB01DC0102C001900D9279
:1058800041505040D8F70895F999FECF92BD81BD9F
:10589000F89A992780B50895A8E1B0E042E050E079
:1058A0000C94782C262FF999FECF92BD81BDF89AE1
:1058B000019700B4021639F01FBA20BD0FB6F89454
:1058C000FA9AF99A0FBE08950396272F0E94532C37
:1058D0000E94522C252F0E94532C242F0C94532CC1
:1058E0000196272F0E94532C0C94522CDC01CB01E3
:1058F000FC01F999FECF06C0F2BDE1BDF89A3196E0
:1059000000B40D9241505040B8F70895F894FFCF7D
:1059100088048804D904D9044C056805B704B70481
:105920006D05D405E305E305561762179817AA1706
:10593000B517C017C317C317C31768176817C81759
:10594000CC17D417E117EE17F117F41701187E18CA
:10595000F2188618501854188A1858188E189A1861
:105960006418EB1868189E186C18A218CA187018DA
:10597000A618D1187618AC18B4185C1892186018CC
:1059800096187A18B018C018DA18E9184A18821848
:10599000F918681C5F1C6B1C5D1CB81CB81C5D1CD6
:1059A000B81CB81C871CB81C921C9D1CB81CB81CC9
:1059B000B81CB81C5D1CB81CB81C5D1CB81C791C3C
:1059C000B81CB81CB61CB61CB61CB61CB61CB61C43
:1059D000B61CB61CB61CA81CB81C681C5B1CB81CEA
:1059E000B81CB81CB81CB81CB81CB81CB81CB81C17
:1059F000B81CA81CB81CB81C5D1CB81CAE1CAE1C86
:105A0000AE1CAE1CAE1CAE1CAE1CAE1CAE1CA81C4C
:105A1000D11FD71FC01FCB1FDD1FE31FE91F782A2F
:105A2000A02A892BA02A892BD32AF42A892B4B2B35
:025A3000572BF2
:105A32004202010000000100000000000000050118
:105A42000000000406000000000000010A0000003F
:105A5200000000280850011E0A14010302019224CA
:105A6200C724C024B92401E200E900EA00B500B667
:105A720000B700CD008301CC008A0192019401217C
:105A820002230224022502260227022A02B300B4BC
:105A9200006F0070009F01CB019F02A002818283F0
:105AA200E200E900EA00B500B600B700CD008301CC
:105AB200CC008A01920194012102230224022502D0
:105AC200260227022A02B300B4006F0070009F0171
:105AD200CB019F02A00281828393929194669734B4
